{
  "_format": "hh-sol-artifact-1",
  "contractName": "Staking",
  "sourceName": "contracts/Stake.sol",
  "abi": [
    {
      "inputs": [
        {
          "internalType": "address",
          "name": "",
          "type": "address"
        }
      ],
      "name": "balances",
      "outputs": [
        {
          "internalType": "uint256",
          "name": "",
          "type": "uint256"
        }
      ],
      "stateMutability": "view",
      "type": "function"
    },
    {
      "inputs": [
        {
          "internalType": "address",
          "name": "user",
          "type": "address"
        }
      ],
      "name": "calculateReward",
      "outputs": [
        {
          "internalType": "uint256",
          "name": "",
          "type": "uint256"
        }
      ],
      "stateMutability": "view",
      "type": "function"
    },
    {
      "inputs": [],
      "name": "getBalance",
      "outputs": [
        {
          "internalType": "uint256",
          "name": "",
          "type": "uint256"
        }
      ],
      "stateMutability": "view",
      "type": "function"
    },
    {
      "inputs": [],
      "name": "minStakeAmount",
      "outputs": [
        {
          "internalType": "uint256",
          "name": "",
          "type": "uint256"
        }
      ],
      "stateMutability": "view",
      "type": "function"
    },
    {
      "inputs": [],
      "name": "rewardRate",
      "outputs": [
        {
          "internalType": "uint256",
          "name": "",
          "type": "uint256"
        }
      ],
      "stateMutability": "view",
      "type": "function"
    },
    {
      "inputs": [],
      "name": "stake",
      "outputs": [],
      "stateMutability": "payable",
      "type": "function"
    },
    {
      "inputs": [
        {
          "internalType": "address",
          "name": "",
          "type": "address"
        }
      ],
      "name": "stakingStart",
      "outputs": [
        {
          "internalType": "uint256",
          "name": "",
          "type": "uint256"
        }
      ],
      "stateMutability": "view",
      "type": "function"
    },
    {
      "inputs": [
        {
          "internalType": "uint256",
          "name": "amount",
          "type": "uint256"
        }
      ],
      "name": "unstake",
      "outputs": [],
      "stateMutability": "nonpayable",
      "type": "function"
    }
  ],
  "bytecode": "0x6080604052600a600255662386f26fc10000600355348015601f57600080fd5b506109b48061002f6000396000f3fe60806040526004361061007b5760003560e01c80637b0a47ee1161004e5780637b0a47ee1461011b578063ade6fa2714610146578063d82e396214610183578063f1887684146101c05761007b565b806312065fe01461008057806327e235e3146100ab5780632e17de78146100e85780633a4b66f114610111575b600080fd5b34801561008c57600080fd5b506100956101eb565b6040516100a29190610658565b60405180910390f35b3480156100b757600080fd5b506100d260048036038101906100cd91906106d6565b610231565b6040516100df9190610658565b60405180910390f35b3480156100f457600080fd5b5061010f600480360381019061010a919061072f565b610249565b005b6101196103cc565b005b34801561012757600080fd5b50610130610557565b60405161013d9190610658565b60405180910390f35b34801561015257600080fd5b5061016d600480360381019061016891906106d6565b61055d565b60405161017a9190610658565b60405180910390f35b34801561018f57600080fd5b506101aa60048036038101906101a591906106d6565b610575565b6040516101b79190610658565b60405180910390f35b3480156101cc57600080fd5b506101d5610639565b6040516101e29190610658565b60405180910390f35b60008060003373ffffffffffffffffffffffffffffffffffffffff1673ffffffffffffffffffffffffffffffffffffffff16815260200190815260200160002054905090565b60006020528060005260406000206000915090505481565b806000803373ffffffffffffffffffffffffffffffffffffffff1673ffffffffffffffffffffffffffffffffffffffff1681526020019081526020016000205410156102ca576040517f08c379a00000000000000000000000000000000000000000000000000000000081526004016102c1906107b9565b60405180910390fd5b60006102d533610575565b9050600081836102e59190610808565b9050826000803373ffffffffffffffffffffffffffffffffffffffff1673ffffffffffffffffffffffffffffffffffffffff1681526020019081526020016000206000828254610335919061083c565b9250508190555042600160003373ffffffffffffffffffffffffffffffffffffffff1673ffffffffffffffffffffffffffffffffffffffff168152602001908152602001600020819055503373ffffffffffffffffffffffffffffffffffffffff166108fc829081150290604051600060405180830381858888f193505050501580156103c6573d6000803e3d6000fd5b50505050565b600354341015610411576040517f08c379a0000000000000000000000000000000000000000000000000000000008152600401610408906108bc565b60405180910390fd5b60008060003373ffffffffffffffffffffffffffffffffffffffff1673ffffffffffffffffffffffffffffffffffffffff1681526020019081526020016000205411156104bc57600061046333610575565b9050806000803373ffffffffffffffffffffffffffffffffffffffff1673ffffffffffffffffffffffffffffffffffffffff16815260200190815260200160002060008282546104b39190610808565b92505081905550505b346000803373ffffffffffffffffffffffffffffffffffffffff1673ffffffffffffffffffffffffffffffffffffffff168152602001908152602001600020600082825461050a9190610808565b9250508190555042600160003373ffffffffffffffffffffffffffffffffffffffff1673ffffffffffffffffffffffffffffffffffffffff16815260200190815260200160002081905550565b60025481565b60016020528060005260406000206000915090505481565b600080600160008473ffffffffffffffffffffffffffffffffffffffff1673ffffffffffffffffffffffffffffffffffffffff16815260200190815260200160002054426105c3919061083c565b9050600063bbf81e00826002546000808873ffffffffffffffffffffffffffffffffffffffff1673ffffffffffffffffffffffffffffffffffffffff1681526020019081526020016000205461061991906108dc565b61062391906108dc565b61062d919061094d565b90508092505050919050565b60035481565b6000819050919050565b6106528161063f565b82525050565b600060208201905061066d6000830184610649565b92915050565b600080fd5b600073ffffffffffffffffffffffffffffffffffffffff82169050919050565b60006106a382610678565b9050919050565b6106b381610698565b81146106be57600080fd5b50565b6000813590506106d0816106aa565b92915050565b6000602082840312156106ec576106eb610673565b5b60006106fa848285016106c1565b91505092915050565b61070c8161063f565b811461071757600080fd5b50565b60008135905061072981610703565b92915050565b60006020828403121561074557610744610673565b5b60006107538482850161071a565b91505092915050565b600082825260208201905092915050565b7f496e73756666696369656e742062616c616e6365000000000000000000000000600082015250565b60006107a360148361075c565b91506107ae8261076d565b602082019050919050565b600060208201905081810360008301526107d281610796565b9050919050565b7f4e487b7100000000000000000000000000000000000000000000000000000000600052601160045260246000fd5b60006108138261063f565b915061081e8361063f565b9250828201905080821115610836576108356107d9565b5b92915050565b60006108478261063f565b91506108528361063f565b925082820390508181111561086a576108696107d9565b5b92915050565b7f4d696e696d756d207374616b6520697320302e30312045544800000000000000600082015250565b60006108a660198361075c565b91506108b182610870565b602082019050919050565b600060208201905081810360008301526108d581610899565b9050919050565b60006108e78261063f565b91506108f28361063f565b92508282026109008161063f565b91508282048414831517610917576109166107d9565b5b5092915050565b7f4e487b7100000000000000000000000000000000000000000000000000000000600052601260045260246000fd5b60006109588261063f565b91506109638361063f565b9250826109735761097261091e565b5b82820490509291505056fea264697066735822122065e57d9ff82d2b11e071133bad31f526a6d149b7db9e80db0583d9dc23281d7e64736f6c634300081c0033",
  "linkReferences": {},
  "deployedLinkReferences": {}
}